{
  "contractName": "PetAdoption",
  "abi": [
    {
      "constant": true,
      "inputs": [
        {
          "internalType": "uint256",
          "name": "",
          "type": "uint256"
        }
      ],
      "name": "owners",
      "outputs": [
        {
          "internalType": "address",
          "name": "",
          "type": "address"
        }
      ],
      "payable": false,
      "stateMutability": "view",
      "type": "function"
    },
    {
      "constant": true,
      "inputs": [],
      "name": "getOwners",
      "outputs": [
        {
          "internalType": "address[16]",
          "name": "",
          "type": "address[16]"
        }
      ],
      "payable": false,
      "stateMutability": "view",
      "type": "function"
    }
  ],
  "bytecode": "0x608060405234801561001057600080fd5b506101fb806100206000396000f3fe608060405234801561001057600080fd5b50600436106100365760003560e01c8063025e7c271461003b578063a0e67e2b146100a9575b600080fd5b6100676004803603602081101561005157600080fd5b81019080803590602001909291905050506100ef565b604051808273ffffffffffffffffffffffffffffffffffffffff1673ffffffffffffffffffffffffffffffffffffffff16815260200191505060405180910390f35b6100b1610122565b6040518082601060200280838360005b838110156100dc5780820151818401526020810190506100c1565b5050505090500191505060405180910390f35b600081601081106100fc57fe5b016000915054906101000a900473ffffffffffffffffffffffffffffffffffffffff1681565b61012a6101a3565b6000601080602002604051908101604052809291908260108015610199576020028201915b8160009054906101000a900473ffffffffffffffffffffffffffffffffffffffff1673ffffffffffffffffffffffffffffffffffffffff168152602001906001019080831161014f575b5050505050905090565b60405180610200016040528060109060208202803883398082019150509050509056fea265627a7a7231582034cecc4a2bed3aa65224f533a38e0c8ad49921d9077de99ec7dcbab27e2a7b3c64736f6c63430005100032",
  "source": "// SPDX-License-Identifier: MIT\npragma solidity >=0.4.22 <0.9.0;\n\ncontract PetAdoption {\n    address [16] public owners;\n\n    modifier adopt(uint petId) {\n        require(0 <= petId && petId <= 15);\n\n        owners[petId] = msg.sender;\n\n        _;\n    }\n\n    function getOwners() public view returns (address[16] memory) {\n        return owners;\n    }\n}\n",
  "sourcePath": "/Users/andriiivaniv/Desktop/cr-smart-contract/contracts/Pet-adoption.sol",
  "compiler": {
    "name": "solc",
    "version": "0.5.16+commit.9c3226ce.Emscripten.clang"
  },
  "schemaVersion": "3.3.4",
  "updatedAt": "2021-03-10T11:08:22.380Z",
  "devdoc": {
    "methods": {}
  },
  "userdoc": {
    "methods": {}
  }
}